:100000000C9463000C948B000C948B000C948B006C
:100010000C948B000C948B000C948B000C941A04A1
:100020000C948B000C948B000C948B000C948B0024
:100030000C948B000C948B000C948B000C948B0014
:100040000C94CE040C948B000C949C040C947604B9
:100050000C948B000C948B000C948B000C948B00F4
:100060000C948B000C948B000000000024002700EF
:100070002A000000000023002600290000000008DC
:10008000000201000003040700000000000000005F
:10009000010204081020408001020408102001021F
:1000A0000408102000000000250028002B00040494
:1000B0000404040404040202020202020303030310
:1000C00003030200010611241FBECFEFD8E0DEBFFC
:1000D000CDBF11E0A0E0B1E0EEEEFCE002C0059083
:1000E0000D92A631B107D9F721E0A6E1B1E001C038
:1000F0001D92AD3CB207E1F710E0C3E6D0E004C0CA
:100100002197FE010E946F06C236D107C9F70E94EF
:1001100018050C9475060C940000AF92BF92CF9214
:10012000DF92EF92FF920F931F93CF93DF936C01B7
:100130007B018B01040F151FEB015E01AE18BF0898
:10014000C017D10759F06991D601ED91FC9101904A
:10015000F081E02DC6010995892B79F7C501DF9162
:10016000CF911F910F91FF90EF90DF90CF90BF90B4
:10017000AF900895FC01538D448D252F30E0842FDE
:1001800090E0821B930B541710F0CF9608950197BF
:100190000895FC01918D828D981761F0A28DAE0FAC
:1001A000BF2FB11D5D968C91928D9F5F9F73928F33
:1001B00090E008958FEF9FEF0895FC01918D828D5F
:1001C000981731F0828DE80FF11D858D90E008952C
:1001D0008FEF9FEF0895FC01918D228D892F90E084
:1001E000805C9F4F821B91098F73992708958FE13F
:1001F00091E00E94EB0021E0892B09F420E0822F9E
:10020000089580E090E0892B29F00E94F700811189
:100210000C9400000895FC01A48DA80FB92FB11D06
:10022000A35ABF4F2C91848D90E001968F7399272C
:10023000848FA689B7892C93A089B1898C9183700A
:1002400080648C93938D848D981306C00288F38903
:10025000E02D80818F7D80830895EF92FF920F9330
:100260001F93CF93DF93EC0181E0888F9B8D8C8D62
:1002700098131AC0E889F989808185FF15C09FB756
:10028000F894EE89FF896083E889F9898081837019
:10029000806480839FBF81E090E0DF91CF911F91C8
:1002A0000F91FF90EF900895F62E0B8D10E00F5FE9
:1002B0001F4F0F731127E02E8C8D8E110CC00FB6BF
:1002C00007FCFACFE889F989808185FFF5CFCE0157
:1002D0000E940B01F1CFEB8DEC0FFD2FF11DE35AC6
:1002E000FF4FF0829FB7F8940B8FEA89FB898081DA
:1002F0008062CFCFCF93DF93EC01888D8823B9F054
:10030000AA89BB89E889F9898C9185FD03C0808120
:1003100086FD0DC00FB607FCF7CF8C9185FFF2CF9D
:10032000808185FFEDCFCE010E940B01E9CFDF91E7
:10033000CF910895833081F028F4813099F0823094
:10034000A9F008958730A9F08830C9F08430B1F45D
:10035000809180008F7D03C0809180008F77809393
:100360008000089584B58F7784BD089584B58F7D0E
:10037000FBCF8091B0008F778093B000089580917B
:10038000B0008F7DF9CFCF93DF93E4E8F0E0849164
:10039000E8E9F0E0D491E6EBF0E0C491CC23A1F0E1
:1003A00081110E949A01EC2FF0E0EE0FFF1FEE5832
:1003B000FF4FA591B491EC91ED2381E090E009F419
:1003C00080E0DF91CF91089580E090E0FACF1F9315
:1003D000CF93DF93282F30E0F901E458FF4F849149
:1003E000F901E057FF4FD491F901E255FF4FC49155
:1003F000CC23A9F0162F81110E949A01EC2FF0E076
:10040000EE0FFF1FEC55FF4FA591B4918FB7F894F5
:10041000EC91111108C0D095DE23DC938FBFDF91E2
:10042000CF911F910895DE2BF8CF90910001891391
:100430000BC0E2ECF0E0E4919FEF90930001E1301B
:1004400049F028F0E23061F060E00C94E70110928E
:100450006E00FACF90916F009D7F90936F00F4CF64
:10046000909170009D7F9093700091E09093B00008
:100470009091B100987F94609093B1001092B30076
:10048000E3CFCF93DF9390E0FC01E057FF4F24913F
:1004900082559F4FFC0184918823D1F090E0880F12
:1004A000991FFC01E859FF4FA591B491FC01EC554F
:1004B000FF4FC591D49161110EC09FB7F8948C91F4
:1004C000E22FE0958E238C932881E223E8839FBF5F
:1004D000DF91CF9108958FB7F894EC91E22BEC93D4
:1004E0008FBFF6CF0F931F93CF938C0180910001A4
:1004F0008C3039F08F3F09F444C0CF911F910F9198
:100500000895E2ECF0E0C491C7FDF7CF61E08CE024
:100510000E944102CC2319F0C23009F0A1C0980119
:1005200050E040E068E478EE81E090E00E94500600
:10053000BA01A9014150510961097109CC2309F49B
:10054000CFC08091B100887F84608093B100C130BA
:1005500009F49EC0C23009F4B0C0C111CECF47BD6E
:100560008FEF9FEFDC018093C9019093CA01A093A4
:10057000CB01B093CC0180916E00826080936E00BD
:10058000BCCF8CE080930001E2ECF0E0C491CF3F5F
:1005900009F4B3CFC13021F150F0C23009F43EC0AC
:1005A000C7FDABCF61E08CE00E944102B5CF14BC27
:1005B00015BC84B5826084BD85B5816085BDEAEBDC
:1005C000F0E0E491F0E0EE0FFF1FEC55FF4F859156
:1005D0009491ECE9F0E0E491E093C001C0E096CFA3
:1005E0001092800010928100809181008860809339
:1005F000810080918100816080938100EAEBF0E0CE
:10060000E491F0E0EE0FFF1FEC55FF4F85919491C0
:10061000ECE9F0E0E491E093BF0178CF1092B000F4
:100620001092B1008091B00082608093B000809100
:10063000B10081608093B100EAEBF0E0E491F0E07A
:10064000EE0FFF1FEC55FF4F859194919093BE01E3
:100650008093BD01ECE9F0E0E491E093BC0156CF5A
:10066000980150E040E060E072E18AE790E00E948B
:100670005006BA01A9014150510961097109C130FF
:1006800009F065CF80918100887F8160809381002F
:1006900050938900409388008FEF9FEFDC01809397
:1006A000C5019093C601A093C701B093C801809182
:1006B0006F00826080936F0020CF4093B3008FEF74
:1006C0009FEFDC018093C1019093C201A093C3010D
:1006D000B093C401809170008260809370000DCF50
:1006E00085B5887F836085BD3ACF3FB7F894809108
:1006F0001B0190911C01A0911D01B0911E0126B516
:10070000A89B05C02F3F19F00196A11DB11D3FBF49
:10071000BA2FA92F982F8827BC01CD01620F711D18
:10072000811D911D42E0660F771F881F991F4A9512
:10073000D1F708958F929F92AF92BF92CF92DF929E
:10074000EF92FF924B015C010E9475036B017C01EB
:100750000E9475036C197D098E099F09683E7340DC
:1007600081059105A8F321E0821A9108A108B1083A
:1007700088EEC80E83E0D81EE11CF11C81149104A0
:10078000A104B10429F7FF90EF90DF90CF90BF90C4
:10079000AF909F908F9008958F929F92AF92BF924B
:1007A0000F931F93CF93DF93CDB7DEB7A1970FB60B
:1007B000F894DEBF0FBECDBF19A2423008F44AE064
:1007C0008E010F5D1F4F842E912CB12CA12CA50101
:1007D00094010E942E06E62FB901CA01EA3044F5C1
:1007E000E05DD801EE938D01232B242B252B79F787
:1007F00090E080E0109769F0FD0101900020E9F79A
:100800003197AF014A1B5B0BBD018FE191E00E9464
:100810008D00A1960FB6F894DEBF0FBECDBFDF915D
:10082000CF911F910F91BF90AF909F908F9008959F
:10083000E95CD7CF1F920F920FB60F9211242F931E
:100840003F934F935F936F937F938F939F93AF9358
:10085000BF93EF93FF938091C1019091C201A0914A
:10086000C301B091C401892B8A2B8B2BD1F19091BC
:10087000BC01E091BD01F091BE0180818927808398
:100880008091C1019091C201A091C301B091C401B6
:10089000181619061A061B069CF48091C101909146
:1008A000C201A091C301B091C4010197A109B1098E
:1008B0008093C1019093C201A093C301B093C4017E
:1008C000FF91EF91BF91AF919F918F917F916F9128
:1008D0005F914F913F912F910F900FBE0F901F90FE
:1008E0001895809100010E941502EACF1F920F9285
:1008F0000FB60F9211242F933F934F935F936F93F3
:100900007F938F939F93AF93BF93EF93FF938FE169
:1009100091E00E940B01FF91EF91BF91AF919F91E8
:100920008F917F916F915F914F913F912F910F9098
:100930000FBE0F901F9018951F920F920FB60F9237
:1009400011242F938F939F93EF93FF93E0912F01A7
:10095000F09130018081E0913501F091360182FD06
:100960001BC09081809138018F5F8F732091390176
:10097000821741F0E0913801F0E0E15EFE4F958F83
:1009800080933801FF91EF919F918F912F910F905C
:100990000FBE0F901F9018958081F4CF1F920F9279
:1009A0000FB60F9211242F933F938F939F93AF9382
:1009B000BF938091170190911801A0911901B091F6
:1009C0001A013091160123E0230F2D3758F50196B7
:1009D000A11DB11D2093160180931701909318015A
:1009E000A0931901B0931A0180911B0190911C01F1
:1009F000A0911D01B0911E010196A11DB11D809312
:100A00001B0190931C01A0931D01B0931E01BF9187
:100A1000AF919F918F913F912F910F900FBE0F90AB
:100A20001F90189526E8230F0296A11DB11DD2CF65
:100A3000789484B5826084BD84B5816084BD85B5B9
:100A4000826085BD85B5816085BD80916E008160C5
:100A500080936E001092810080918100826080936B
:100A6000810080918100816080938100809180006D
:100A70008160809380008091B10084608093B10098
:100A80008091B00081608093B00080917A00846092
:100A900080937A0080917A00826080937A008091BE
:100AA0007A00816080937A0080917A0080688093D8
:100AB0007A001092C10060E088E00E944102E0915B
:100AC0002F01F091300182E08083E0912B01F091C1
:100AD0002C011082E0912D01F0912E018FEC80838A
:100AE00010923701E0913301F091340186E0808368
:100AF000E0913101F0913201808180618083E09149
:100B00003101F0913201808188608083E091310170
:100B1000F0913201808180688083E0913101F09111
:100B2000320180818F7D808361E082E00E944102FA
:100B300061E083E00E94410261E08CE00E9441029A
:100B4000C0E0D0E00E94C3016C01990FEE08FF08DD
:100B50004AE0C701B601F7FE0DC06DE28FE191E0FA
:100B60000E942D0166277727CB016C197D098E091C
:100B70009F094AE00E94CC0342E050E063E171E04B
:100B80008FE191E00E948D000E94C301019769F5F9
:100B900061E082E00E94E70160E083E00E94E701FB
:100BA0008BE092E00E9472026CEB72E080E090E0D9
:100BB0000E949A0380E193E00E9472026CEB72E063
:100BC00080E090E00E949A0368E070E080E090E0AE
:100BD0000E949A03209709F4B5CF0E94F70088235A
:100BE00009F4B0CF0E940000ADCF60E082E00E9427
:100BF000E70161E083E00E94E7018CE00E941502BA
:100C0000E3CFEFE1F1E01382128288EE93E0A0E0FF
:100C1000B0E084839583A683B78385E091E09183D8
:100C2000808385EC90E09587848784EC90E09787BB
:100C3000868780EC90E0918B808B81EC90E0938BA9
:100C4000828B82EC90E0958B848B86EC90E0978B86
:100C5000868B118E128E138E148E0895A1E21A2E99
:100C6000AA1BBB1BFD010DC0AA1FBB1FEE1FFF1F50
:100C7000A217B307E407F50720F0A21BB30BE40BA0
:100C8000F50B661F771F881F991F1A9469F76095E7
:100C90007095809590959B01AC01BD01CF010895A1
:100CA000052E97FB1EF400940E94670657FD07D09F
:100CB0000E942E0607FC03D04EF40C946706509554
:100CC0004095309521953F4F4F4F5F4F0895909538
:100CD0008095709561957F4F8F4F9F4F0895EE0FD0
:0E0CE000FF1F0590F491E02D0994F894FFCFCA
:100CEE00FF000000002D018D00BA007A01EB00C953
:060CFE0000DD000D0A00FC
:00000001FF
